{
  "contractName": "TodoList",
  "abi": [
    {
      "constant": true,
      "inputs": [
        {
          "name": "",
          "type": "uint256"
        }
      ],
      "name": "tasks",
      "outputs": [
        {
          "name": "id",
          "type": "uint256"
        },
        {
          "name": "content",
          "type": "string"
        },
        {
          "name": "completed",
          "type": "bool"
        }
      ],
      "payable": false,
      "stateMutability": "view",
      "type": "function"
    },
    {
      "constant": true,
      "inputs": [],
      "name": "taskCount",
      "outputs": [
        {
          "name": "",
          "type": "uint256"
        }
      ],
      "payable": false,
      "stateMutability": "view",
      "type": "function"
    },
    {
      "inputs": [],
      "payable": false,
      "stateMutability": "nonpayable",
      "type": "constructor"
    },
    {
      "constant": false,
      "inputs": [
        {
          "name": "_content",
          "type": "string"
        }
      ],
      "name": "createTask",
      "outputs": [],
      "payable": false,
      "stateMutability": "nonpayable",
      "type": "function"
    }
  ],
  "bytecode": "0x60806040526000805534801561001457600080fd5b506100596040518060400160405280601781526020017f74657374207461736b20666f722072656e646572696e6700000000000000000081525061005e60201b60201c565b610195565b6000808154809291906001019190505550604051806060016040528060005481526020018281526020016000151581525060016000805481526020019081526020016000206000820151816000015560208201518160010190805190602001906100c99291906100f0565b5060408201518160020160006101000a81548160ff02191690831515021790555090505050565b828054600181600116156101000203166002900490600052602060002090601f016020900481019282601f1061013157805160ff191683800117855561015f565b8280016001018555821561015f579182015b8281111561015e578251825591602001919060010190610143565b5b50905061016c9190610170565b5090565b61019291905b8082111561018e576000816000905550600101610176565b5090565b90565b610410806101a46000396000f3fe608060405234801561001057600080fd5b50600436106100415760003560e01c8063111002aa146100465780638d97767214610101578063b6cb58a5146101ba575b600080fd5b6100ff6004803603602081101561005c57600080fd5b810190808035906020019064010000000081111561007957600080fd5b82018360208201111561008b57600080fd5b803590602001918460018302840111640100000000831117156100ad57600080fd5b91908080601f016020809104026020016040519081016040528093929190818152602001838380828437600081840152601f19601f8201169050808301925050505050505091929192905050506101d8565b005b61012d6004803603602081101561011757600080fd5b810190808035906020019092919050505061026a565b604051808481526020018060200183151515158152602001828103825284818151815260200191508051906020019080838360005b8381101561017d578082015181840152602081019050610162565b50505050905090810190601f1680156101aa5780820380516001836020036101000a031916815260200191505b5094505050505060405180910390f35b6101c2610339565b6040518082815260200191505060405180910390f35b60008081548092919060010191905055506040518060600160405280600054815260200182815260200160001515815250600160008054815260200190815260200160002060008201518160000155602082015181600101908051906020019061024392919061033f565b5060408201518160020160006101000a81548160ff02191690831515021790555090505050565b6001602052806000526040600020600091509050806000015490806001018054600181600116156101000203166002900480601f01602080910402602001604051908101604052809291908181526020018280546001816001161561010002031660029004801561031c5780601f106102f15761010080835404028352916020019161031c565b820191906000526020600020905b8154815290600101906020018083116102ff57829003601f168201915b5050505050908060020160009054906101000a900460ff16905083565b60005481565b828054600181600116156101000203166002900490600052602060002090601f016020900481019282601f1061038057805160ff19168380011785556103ae565b828001600101855582156103ae579182015b828111156103ad578251825591602001919060010190610392565b5b5090506103bb91906103bf565b5090565b6103e191905b808211156103dd5760008160009055506001016103c5565b5090565b9056fea165627a7a72305820010420c04b22d277dea60e380980af6637cc4dd96009faa6d26bc800d12e92290029",
  "source": "pragma solidity ^0.5.0;\n\ncontract TodoList {\n  uint public taskCount = 0;\n\n  struct Task {\n    uint id;\n    string content;\n    bool completed;\n  }\n\n  mapping(uint => Task) public tasks;\n\n  function createTask(string memory _content) public {\n    taskCount ++;\n    tasks[taskCount] = Task(taskCount, _content, false);\n  }\n    constructor() public {\n        createTask(\"test task for rendering\");\n      }\n\n}\n",
  "sourcePath": "/Users/rfk/Desktop/dApp-ToDoList/contracts/TodoList.sol",
  "compiler": {
    "name": "solc",
    "version": "0.5.8+commit.23d335f2.Emscripten.clang"
  },
  "schemaVersion": "3.0.13",
  "updatedAt": "2019-11-24T06:16:10.096Z",
  "devdoc": {
    "methods": {}
  },
  "userdoc": {
    "methods": {}
  }
}